{"abi":[{"type":"function","name":"addDocument","inputs":[{"name":"_documentHash","type":"bytes32","internalType":"bytes32"},{"name":"_description","type":"string","internalType":"string"}],"outputs":[],"stateMutability":"nonpayable"},{"type":"function","name":"addressToDocuments","inputs":[{"name":"","type":"address","internalType":"address"},{"name":"","type":"uint256","internalType":"uint256"}],"outputs":[{"name":"id","type":"uint16","internalType":"uint16"},{"name":"hashes","type":"bytes32","internalType":"bytes32"},{"name":"description","type":"string","internalType":"string"},{"name":"stamp","type":"uint256","internalType":"uint256"}],"stateMutability":"view"},{"type":"function","name":"documentAddress","inputs":[{"name":"","type":"uint256","internalType":"uint256"}],"outputs":[{"name":"","type":"address","internalType":"address"}],"stateMutability":"view"},{"type":"function","name":"documents","inputs":[{"name":"","type":"uint256","internalType":"uint256"}],"outputs":[{"name":"id","type":"uint16","internalType":"uint16"},{"name":"hashes","type":"bytes32","internalType":"bytes32"},{"name":"description","type":"string","internalType":"string"},{"name":"stamp","type":"uint256","internalType":"uint256"}],"stateMutability":"view"},{"type":"function","name":"getAllDocuments","inputs":[],"outputs":[{"name":"","type":"tuple[]","internalType":"struct ProofOfExistence.Document[]","components":[{"name":"id","type":"uint16","internalType":"uint16"},{"name":"hashes","type":"bytes32","internalType":"bytes32"},{"name":"description","type":"string","internalType":"string"},{"name":"stamp","type":"uint256","internalType":"uint256"}]}],"stateMutability":"view"},{"type":"function","name":"getDocument","inputs":[],"outputs":[{"name":"","type":"tuple[]","internalType":"struct ProofOfExistence.Document[]","components":[{"name":"id","type":"uint16","internalType":"uint16"},{"name":"hashes","type":"bytes32","internalType":"bytes32"},{"name":"description","type":"string","internalType":"string"},{"name":"stamp","type":"uint256","internalType":"uint256"}]}],"stateMutability":"view"},{"type":"function","name":"unique","inputs":[{"name":"","type":"bytes32","internalType":"bytes32"}],"outputs":[{"name":"","type":"bool","internalType":"bool"}],"stateMutability":"view"},{"type":"function","name":"userDocumentExist","inputs":[{"name":"","type":"bytes32","internalType":"bytes32"},{"name":"","type":"address","internalType":"address"}],"outputs":[{"name":"","type":"bool","internalType":"bool"}],"stateMutability":"view"},{"type":"function","name":"verifyDocumentExistence","inputs":[{"name":"_documentHash","type":"bytes32","internalType":"bytes32"}],"outputs":[{"name":"","type":"bool","internalType":"bool"}],"stateMutability":"view"},{"type":"event","name":"Registered","inputs":[{"name":"timeStamp","type":"uint256","indexed":false,"internalType":"uint256"},{"name":"_sender","type":"address","indexed":true,"internalType":"address"}],"anonymous":false}],"bytecode":{"object":"0x6080604052348015600e575f5ffd5b506114458061001c5f395ff3fe608060405234801561000f575f5ffd5b5060043610610091575f3560e01c8063b6f3f14d11610064578063b6f3f14d14610146578063c081c0ef14610164578063c2ed2b0514610194578063d602280d146101c7578063f2025666146101e357610091565b8063742f07981461009557806392fa37dc146100c85780639fa5f50b146100f8578063a98d03b214610116575b5f5ffd5b6100af60048036038101906100aa9190610a78565b610213565b6040516100bf9493929190610b69565b60405180910390f35b6100e260048036038101906100dd9190610bdd565b6102ec565b6040516100ef9190610c35565b60405180910390f35b610100610316565b60405161010d9190610dde565b60405180910390f35b610130600480360381019061012b9190610dfe565b610433565b60405161013d9190610c35565b60405180910390f35b61014e610450565b60405161015b9190610dde565b60405180910390f35b61017e60048036038101906101799190610e29565b6105a9565b60405161018b9190610e63565b60405180910390f35b6101ae60048036038101906101a99190610e29565b6105e4565b6040516101be9493929190610b69565b60405180910390f35b6101e160048036038101906101dc9190610fa8565b6106b1565b005b6101fd60048036038101906101f89190610dfe565b610938565b60405161020a9190610c35565b60405180910390f35b6001602052815f5260405f20818154811061022c575f80fd5b905f5260205f2090600402015f9150915050805f015f9054906101000a900461ffff16908060010154908060020180546102659061102f565b80601f01602080910402602001604051908101604052809291908181526020018280546102919061102f565b80156102dc5780601f106102b3576101008083540402835291602001916102dc565b820191905f5260205f20905b8154815290600101906020018083116102bf57829003601f168201915b5050505050908060030154905084565b6003602052815f5260405f20602052805f5260405f205f915091509054906101000a900460ff1681565b60605f805480602002602001604051908101604052809291908181526020015f905b8282101561042a578382905f5260205f2090600402016040518060800160405290815f82015f9054906101000a900461ffff1661ffff1661ffff168152602001600182015481526020016002820180546103919061102f565b80601f01602080910402602001604051908101604052809291908181526020018280546103bd9061102f565b80156104085780601f106103df57610100808354040283529160200191610408565b820191905f5260205f20905b8154815290600101906020018083116103eb57829003601f168201915b5050505050815260200160038201548152505081526020019060010190610338565b50505050905090565b6002602052805f5260405f205f915054906101000a900460ff1681565b606060015f3373ffffffffffffffffffffffffffffffffffffffff1673ffffffffffffffffffffffffffffffffffffffff1681526020019081526020015f20805480602002602001604051908101604052809291908181526020015f905b828210156105a0578382905f5260205f2090600402016040518060800160405290815f82015f9054906101000a900461ffff1661ffff1661ffff168152602001600182015481526020016002820180546105079061102f565b80601f01602080910402602001604051908101604052809291908181526020018280546105339061102f565b801561057e5780601f106105555761010080835404028352916020019161057e565b820191905f5260205f20905b81548152906001019060200180831161056157829003601f168201915b50505050508152602001600382015481525050815260200190600101906104ae565b50505050905090565b600481815481106105b8575f80fd5b905f5260205f20015f915054906101000a900473ffffffffffffffffffffffffffffffffffffffff1681565b5f81815481106105f2575f80fd5b905f5260205f2090600402015f91509050805f015f9054906101000a900461ffff169080600101549080600201805461062a9061102f565b80601f01602080910402602001604051908101604052809291908181526020018280546106569061102f565b80156106a15780601f10610678576101008083540402835291602001916106a1565b820191905f5260205f20905b81548152906001019060200180831161068457829003601f168201915b5050505050908060030154905084565b60025f8381526020019081526020015f205f9054906101000a900460ff161561070f576040517f08c379a0000000000000000000000000000000000000000000000000000000008152600401610706906110a9565b60405180910390fd5b5f60405180608001604052806001805f3373ffffffffffffffffffffffffffffffffffffffff1673ffffffffffffffffffffffffffffffffffffffff1681526020019081526020015f208054905061076791906110f4565b61ffff16815260200184815260200183815260200142815250905060015f3373ffffffffffffffffffffffffffffffffffffffff1673ffffffffffffffffffffffffffffffffffffffff1681526020019081526020015f2081908060018154018082558091505060019003905f5260205f2090600402015f909190919091505f820151815f015f6101000a81548161ffff021916908361ffff16021790555060208201518160010155604082015181600201908161082591906112d8565b506060820151816003015550505f81908060018154018082558091505060019003905f5260205f2090600402015f909190919091505f820151815f015f6101000a81548161ffff021916908361ffff16021790555060208201518160010155604082015181600201908161089991906112d8565b50606082015181600301555050600160025f8581526020019081526020015f205f6101000a81548160ff021916908315150217905550600160035f8581526020019081526020015f205f3373ffffffffffffffffffffffffffffffffffffffff1673ffffffffffffffffffffffffffffffffffffffff1681526020019081526020015f205f6101000a81548160ff021916908315150217905550505050565b5f60035f8381526020019081526020015f205f3373ffffffffffffffffffffffffffffffffffffffff1673ffffffffffffffffffffffffffffffffffffffff1681526020019081526020015f205f9054906101000a900460ff166109d1576040517f08c379a00000000000000000000000000000000000000000000000000000000081526004016109c8906113f1565b60405180910390fd5b60019050919050565b5f604051905090565b5f5ffd5b5f5ffd5b5f73ffffffffffffffffffffffffffffffffffffffff82169050919050565b5f610a14826109eb565b9050919050565b610a2481610a0a565b8114610a2e575f5ffd5b50565b5f81359050610a3f81610a1b565b92915050565b5f819050919050565b610a5781610a45565b8114610a61575f5ffd5b50565b5f81359050610a7281610a4e565b92915050565b5f5f60408385031215610a8e57610a8d6109e3565b5b5f610a9b85828601610a31565b9250506020610aac85828601610a64565b9150509250929050565b5f61ffff82169050919050565b610acc81610ab6565b82525050565b5f819050919050565b610ae481610ad2565b82525050565b5f81519050919050565b5f82825260208201905092915050565b8281835e5f83830152505050565b5f601f19601f8301169050919050565b5f610b2c82610aea565b610b368185610af4565b9350610b46818560208601610b04565b610b4f81610b12565b840191505092915050565b610b6381610a45565b82525050565b5f608082019050610b7c5f830187610ac3565b610b896020830186610adb565b8181036040830152610b9b8185610b22565b9050610baa6060830184610b5a565b95945050505050565b610bbc81610ad2565b8114610bc6575f5ffd5b50565b5f81359050610bd781610bb3565b92915050565b5f5f60408385031215610bf357610bf26109e3565b5b5f610c0085828601610bc9565b9250506020610c1185828601610a31565b9150509250929050565b5f8115159050919050565b610c2f81610c1b565b82525050565b5f602082019050610c485f830184610c26565b92915050565b5f81519050919050565b5f82825260208201905092915050565b5f819050602082019050919050565b610c8081610ab6565b82525050565b610c8f81610ad2565b82525050565b5f82825260208201905092915050565b5f610caf82610aea565b610cb98185610c95565b9350610cc9818560208601610b04565b610cd281610b12565b840191505092915050565b610ce681610a45565b82525050565b5f608083015f830151610d015f860182610c77565b506020830151610d146020860182610c86565b5060408301518482036040860152610d2c8282610ca5565b9150506060830151610d416060860182610cdd565b508091505092915050565b5f610d578383610cec565b905092915050565b5f602082019050919050565b5f610d7582610c4e565b610d7f8185610c58565b935083602082028501610d9185610c68565b805f5b85811015610dcc5784840389528151610dad8582610d4c565b9450610db883610d5f565b925060208a01995050600181019050610d94565b50829750879550505050505092915050565b5f6020820190508181035f830152610df68184610d6b565b905092915050565b5f60208284031215610e1357610e126109e3565b5b5f610e2084828501610bc9565b91505092915050565b5f60208284031215610e3e57610e3d6109e3565b5b5f610e4b84828501610a64565b91505092915050565b610e5d81610a0a565b82525050565b5f602082019050610e765f830184610e54565b92915050565b5f5ffd5b5f5ffd5b7f4e487b71000000000000000000000000000000000000000000000000000000005f52604160045260245ffd5b610eba82610b12565b810181811067ffffffffffffffff82111715610ed957610ed8610e84565b5b80604052505050565b5f610eeb6109da565b9050610ef78282610eb1565b919050565b5f67ffffffffffffffff821115610f1657610f15610e84565b5b610f1f82610b12565b9050602081019050919050565b828183375f83830152505050565b5f610f4c610f4784610efc565b610ee2565b905082815260208101848484011115610f6857610f67610e80565b5b610f73848285610f2c565b509392505050565b5f82601f830112610f8f57610f8e610e7c565b5b8135610f9f848260208601610f3a565b91505092915050565b5f5f60408385031215610fbe57610fbd6109e3565b5b5f610fcb85828601610bc9565b925050602083013567ffffffffffffffff811115610fec57610feb6109e7565b5b610ff885828601610f7b565b9150509250929050565b7f4e487b71000000000000000000000000000000000000000000000000000000005f52602260045260245ffd5b5f600282049050600182168061104657607f821691505b60208210810361105957611058611002565b5b50919050565b7f5573657220446f63756d656e74204578697374000000000000000000000000005f82015250565b5f611093601383610af4565b915061109e8261105f565b602082019050919050565b5f6020820190508181035f8301526110c081611087565b9050919050565b7f4e487b71000000000000000000000000000000000000000000000000000000005f52601160045260245ffd5b5f6110fe82610a45565b915061110983610a45565b9250828201905080821115611121576111206110c7565b5b92915050565b5f819050815f5260205f209050919050565b5f6020601f8301049050919050565b5f82821b905092915050565b5f600883026111837fffffffffffffffffffffffffffffffffffffffffffffffffffffffffffffffff82611148565b61118d8683611148565b95508019841693508086168417925050509392505050565b5f819050919050565b5f6111c86111c36111be84610a45565b6111a5565b610a45565b9050919050565b5f819050919050565b6111e1836111ae565b6111f56111ed826111cf565b848454611154565b825550505050565b5f5f905090565b61120c6111fd565b6112178184846111d8565b505050565b5f5b8281101561123d576112325f828401611204565b60018101905061121e565b505050565b601f821115611290578282111561128f5761125c81611127565b61126583611139565b61126e85611139565b602086101561127b575f90505b80830161128a8284038261121c565b505050505b5b505050565b5f82821c905092915050565b5f6112b05f1984600802611295565b1980831691505092915050565b5f6112c883836112a1565b9150826002028217905092915050565b6112e182610aea565b67ffffffffffffffff8111156112fa576112f9610e84565b5b611304825461102f565b61130f828285611242565b5f60209050601f831160018114611340575f841561132e578287015190505b61133885826112bd565b86555061139f565b601f19841661134e86611127565b5f5b8281101561137557848901518255600182019150602085019450602081019050611350565b86831015611392578489015161138e601f8916826112a1565b8355505b6001600288020188555050505b505050505050565b7f446f63756d656e7420646f6573206e6f742065786973740000000000000000005f82015250565b5f6113db601783610af4565b91506113e6826113a7565b602082019050919050565b5f6020820190508181035f830152611408816113cf565b905091905056fea26469706673582212203afb7de504ed7dd9763e11cd1fb4cbf422b12db7c86e649ba767f75638f2ba3c64736f6c63430008210033","linkReferences":{}},"methodIdentifiers":{"addDocument(bytes32,string)":"d602280d","addressToDocuments(address,uint256)":"742f0798","documentAddress(uint256)":"c081c0ef","documents(uint256)":"c2ed2b05","getAllDocuments()":"9fa5f50b","getDocument()":"b6f3f14d","unique(bytes32)":"a98d03b2","userDocumentExist(bytes32,address)":"92fa37dc","verifyDocumentExistence(bytes32)":"f2025666"},"id":20}