{"abi":[{"type":"function","name":"registerNumber","inputs":[{"name":"_no","type":"uint256","internalType":"uint256"}],"outputs":[],"stateMutability":"nonpayable"},{"type":"event","name":"YYY","inputs":[{"name":"n","type":"address","indexed":false,"internalType":"address"}],"anonymous":false}],"bytecode":{"object":"0x6080604052348015600e575f5ffd5b506103f58061001c5f395ff3fe608060405234801561000f575f5ffd5b5060043610610029575f3560e01c806304cd34551461002d575b5f5ffd5b6100476004803603810190610042919061012c565b610049565b005b5f8160405160200161005b9190610177565b6040516020818303038152906040528051906020012090505f8183604051610082906100e8565b61008c91906101a0565b8190604051809103905ff59050801580156100a9573d5f5f3e3d5ffd5b5090507f4e56b7acd448777094c6ad29100f2cb89f89f00bbef1e99d12583090969e1881816040516100db91906101f8565b60405180910390a1505050565b6101ae8061021283390190565b5f5ffd5b5f819050919050565b61010b816100f9565b8114610115575f5ffd5b50565b5f8135905061012681610102565b92915050565b5f60208284031215610141576101406100f5565b5b5f61014e84828501610118565b91505092915050565b5f819050919050565b61017161016c826100f9565b610157565b82525050565b5f6101828284610160565b60208201915081905092915050565b61019a816100f9565b82525050565b5f6020820190506101b35f830184610191565b92915050565b5f73ffffffffffffffffffffffffffffffffffffffff82169050919050565b5f6101e2826101b9565b9050919050565b6101f2816101d8565b82525050565b5f60208201905061020b5f8301846101e9565b9291505056fe6080604052348015600e575f5ffd5b506040516101ae3803806101ae8339818101604052810190602e9190606b565b805f81905550506091565b5f5ffd5b5f819050919050565b604d81603d565b81146056575f5ffd5b50565b5f815190506065816046565b92915050565b5f60208284031215607d57607c6039565b5b5f6088848285016059565b91505092915050565b6101108061009e5f395ff3fe6080604052348015600e575f5ffd5b50600436106026575f3560e01c806319483cd114602a575b5f5ffd5b60306044565b604051603b91906086565b60405180910390f35b5f5f546040516020016055919060c2565b60405160208183030381529060405280519060200120905090565b5f819050919050565b6080816070565b82525050565b5f60208201905060975f8301846079565b92915050565b5f819050919050565b5f819050919050565b60bc60b882609d565b60a6565b82525050565b5f60cb828460af565b6020820191508190509291505056fea2646970667358221220b36e077c631f96cd1b929cbd868c26c8874d5f77f8c469293f35ff396dd23cfa64736f6c63430008210033a264697066735822122043594d3fbb825715d2b930925f19b86be09156fd55287a7b08e481dce759dd8b64736f6c63430008210033","linkReferences":{}},"methodIdentifiers":{"registerNumber(uint256)":"04cd3455"},"id":19}