{"abi":[{"type":"constructor","inputs":[{"name":"_no","type":"uint256","internalType":"uint256"}],"stateMutability":"nonpayable"},{"type":"function","name":"checkHash","inputs":[],"outputs":[{"name":"r","type":"bytes32","internalType":"bytes32"}],"stateMutability":"view"}],"bytecode":{"object":"0x6080604052348015600e575f5ffd5b506040516101ae3803806101ae8339818101604052810190602e9190606b565b805f81905550506091565b5f5ffd5b5f819050919050565b604d81603d565b81146056575f5ffd5b50565b5f815190506065816046565b92915050565b5f60208284031215607d57607c6039565b5b5f6088848285016059565b91505092915050565b6101108061009e5f395ff3fe6080604052348015600e575f5ffd5b50600436106026575f3560e01c806319483cd114602a575b5f5ffd5b60306044565b604051603b91906086565b60405180910390f35b5f5f546040516020016055919060c2565b60405160208183030381529060405280519060200120905090565b5f819050919050565b6080816070565b82525050565b5f60208201905060975f8301846079565b92915050565b5f819050919050565b5f819050919050565b60bc60b882609d565b60a6565b82525050565b5f60cb828460af565b6020820191508190509291505056fea2646970667358221220b36e077c631f96cd1b929cbd868c26c8874d5f77f8c469293f35ff396dd23cfa64736f6c63430008210033","linkReferences":{}},"methodIdentifiers":{"checkHash()":"19483cd1"},"id":19}