{"abi":[{"type":"constructor","inputs":[],"stateMutability":"nonpayable"},{"type":"function","name":"approve","inputs":[{"name":"to","type":"address","internalType":"address"},{"name":"tokenId","type":"uint256","internalType":"uint256"}],"outputs":[],"stateMutability":"nonpayable"},{"type":"function","name":"balanceOf","inputs":[{"name":"owner","type":"address","internalType":"address"}],"outputs":[{"name":"","type":"uint256","internalType":"uint256"}],"stateMutability":"view"},{"type":"function","name":"getApproved","inputs":[{"name":"tokenId","type":"uint256","internalType":"uint256"}],"outputs":[{"name":"","type":"address","internalType":"address"}],"stateMutability":"view"},{"type":"function","name":"isApprovedForAll","inputs":[{"name":"owner","type":"address","internalType":"address"},{"name":"operator","type":"address","internalType":"address"}],"outputs":[{"name":"","type":"bool","internalType":"bool"}],"stateMutability":"view"},{"type":"function","name":"name","inputs":[],"outputs":[{"name":"","type":"string","internalType":"string"}],"stateMutability":"view"},{"type":"function","name":"ownerOf","inputs":[{"name":"tokenId","type":"uint256","internalType":"uint256"}],"outputs":[{"name":"","type":"address","internalType":"address"}],"stateMutability":"view"},{"type":"function","name":"safeMint","inputs":[{"name":"to","type":"address","internalType":"address"},{"name":"_vault","type":"address","internalType":"address"}],"outputs":[],"stateMutability":"nonpayable"},{"type":"function","name":"safeTransferFrom","inputs":[{"name":"from","type":"address","internalType":"address"},{"name":"to","type":"address","internalType":"address"},{"name":"tokenId","type":"uint256","internalType":"uint256"}],"outputs":[],"stateMutability":"nonpayable"},{"type":"function","name":"safeTransferFrom","inputs":[{"name":"from","type":"address","internalType":"address"},{"name":"to","type":"address","internalType":"address"},{"name":"tokenId","type":"uint256","internalType":"uint256"},{"name":"data","type":"bytes","internalType":"bytes"}],"outputs":[],"stateMutability":"nonpayable"},{"type":"function","name":"setApprovalForAll","inputs":[{"name":"operator","type":"address","internalType":"address"},{"name":"approved","type":"bool","internalType":"bool"}],"outputs":[],"stateMutability":"nonpayable"},{"type":"function","name":"supportsInterface","inputs":[{"name":"interfaceId","type":"bytes4","internalType":"bytes4"}],"outputs":[{"name":"","type":"bool","internalType":"bool"}],"stateMutability":"view"},{"type":"function","name":"symbol","inputs":[],"outputs":[{"name":"","type":"string","internalType":"string"}],"stateMutability":"view"},{"type":"function","name":"tokenURI","inputs":[{"name":"tokenId","type":"uint256","internalType":"uint256"}],"outputs":[{"name":"","type":"string","internalType":"string"}],"stateMutability":"view"},{"type":"function","name":"transferFrom","inputs":[{"name":"from","type":"address","internalType":"address"},{"name":"to","type":"address","internalType":"address"},{"name":"tokenId","type":"uint256","internalType":"uint256"}],"outputs":[],"stateMutability":"nonpayable"},{"type":"event","name":"Approval","inputs":[{"name":"owner","type":"address","indexed":true,"internalType":"address"},{"name":"approved","type":"address","indexed":true,"internalType":"address"},{"name":"tokenId","type":"uint256","indexed":true,"internalType":"uint256"}],"anonymous":false},{"type":"event","name":"ApprovalForAll","inputs":[{"name":"owner","type":"address","indexed":true,"internalType":"address"},{"name":"operator","type":"address","indexed":true,"internalType":"address"},{"name":"approved","type":"bool","indexed":false,"internalType":"bool"}],"anonymous":false},{"type":"event","name":"Transfer","inputs":[{"name":"from","type":"address","indexed":true,"internalType":"address"},{"name":"to","type":"address","indexed":true,"internalType":"address"},{"name":"tokenId","type":"uint256","indexed":true,"internalType":"uint256"}],"anonymous":false},{"type":"error","name":"ERC721IncorrectOwner","inputs":[{"name":"sender","type":"address","internalType":"address"},{"name":"tokenId","type":"uint256","internalType":"uint256"},{"name":"owner","type":"address","internalType":"address"}]},{"type":"error","name":"ERC721InsufficientApproval","inputs":[{"name":"operator","type":"address","internalType":"address"},{"name":"tokenId","type":"uint256","internalType":"uint256"}]},{"type":"error","name":"ERC721InvalidApprover","inputs":[{"name":"approver","type":"address","internalType":"address"}]},{"type":"error","name":"ERC721InvalidOperator","inputs":[{"name":"operator","type":"address","internalType":"address"}]},{"type":"error","name":"ERC721InvalidOwner","inputs":[{"name":"owner","type":"address","internalType":"address"}]},{"type":"error","name":"ERC721InvalidReceiver","inputs":[{"name":"receiver","type":"address","internalType":"address"}]},{"type":"error","name":"ERC721InvalidSender","inputs":[{"name":"sender","type":"address","internalType":"address"}]},{"type":"error","name":"ERC721NonexistentToken","inputs":[{"name":"tokenId","type":"uint256","internalType":"uint256"}]},{"type":"error","name":"StringsInsufficientHexLength","inputs":[{"name":"value","type":"uint256","internalType":"uint256"},{"name":"length","type":"uint256","internalType":"uint256"}]}],"bytecode":{"object":"0x608060405234801561000f575f5ffd5b506040518060400160405280600881526020017f5661756c744e46540000000000000000000000000000000000000000000000008152506040518060400160405280600281526020017f5654000000000000000000000000000000000000000000000000000000000000815250815f908161008a91906102f0565b50806001908161009a91906102f0565b5050506103bf565b5f81519050919050565b7f4e487b71000000000000000000000000000000000000000000000000000000005f52604160045260245ffd5b7f4e487b71000000000000000000000000000000000000000000000000000000005f52602260045260245ffd5b5f600282049050600182168061011d57607f821691505b6020821081036101305761012f6100d9565b5b50919050565b5f819050815f5260205f209050919050565b5f6020601f8301049050919050565b5f82821b905092915050565b5f600883026101927fffffffffffffffffffffffffffffffffffffffffffffffffffffffffffffffff82610157565b61019c8683610157565b95508019841693508086168417925050509392505050565b5f819050919050565b5f819050919050565b5f6101e06101db6101d6846101b4565b6101bd565b6101b4565b9050919050565b5f819050919050565b6101f9836101c6565b61020d610205826101e7565b848454610163565b825550505050565b5f5f905090565b610224610215565b61022f8184846101f0565b505050565b5f5b828110156102555761024a5f82840161021c565b600181019050610236565b505050565b601f8211156102a857828211156102a75761027481610136565b61027d83610148565b61028685610148565b6020861015610293575f90505b8083016102a282840382610234565b505050505b5b505050565b5f82821c905092915050565b5f6102c85f19846008026102ad565b1980831691505092915050565b5f6102e083836102b9565b9150826002028217905092915050565b6102f9826100a2565b67ffffffffffffffff811115610312576103116100ac565b5b61031c8254610106565b61032782828561025a565b5f60209050601f831160018114610358575f8415610346578287015190505b61035085826102d5565b8655506103b7565b601f19841661036686610136565b5f5b8281101561038d57848901518255600182019150602085019450602081019050610368565b868310156103aa57848901516103a6601f8916826102b9565b8355505b6001600288020188555050505b505050505050565b612f08806103cc5f395ff3fe608060405234801561000f575f5ffd5b50600436106100e8575f3560e01c806370a082311161008a578063b88d4fde11610064578063b88d4fde14610258578063c87b56dd14610274578063e59aee0c146102a4578063e985e9c5146102c0576100e8565b806370a08231146101ee57806395d89b411461021e578063a22cb4651461023c576100e8565b8063095ea7b3116100c6578063095ea7b31461016a57806323b872dd1461018657806342842e0e146101a25780636352211e146101be576100e8565b806301ffc9a7146100ec57806306fdde031461011c578063081812fc1461013a575b5f5ffd5b61010660048036038101906101019190611bcf565b6102f0565b6040516101139190611c14565b60405180910390f35b6101246103d1565b6040516101319190611c9d565b60405180910390f35b610154600480360381019061014f9190611cf0565b610460565b6040516101619190611d5a565b60405180910390f35b610184600480360381019061017f9190611d9d565b61047b565b005b6101a0600480360381019061019b9190611ddb565b610491565b005b6101bc60048036038101906101b79190611ddb565b610590565b005b6101d860048036038101906101d39190611cf0565b6105af565b6040516101e59190611d5a565b60405180910390f35b61020860048036038101906102039190611e2b565b6105c0565b6040516102159190611e65565b60405180910390f35b610226610676565b6040516102339190611c9d565b60405180910390f35b61025660048036038101906102519190611ea8565b610706565b005b610272600480360381019061026d9190612012565b61071c565b005b61028e60048036038101906102899190611cf0565b610741565b60405161029b9190611c9d565b60405180910390f35b6102be60048036038101906102b99190612092565b610877565b005b6102da60048036038101906102d59190612092565b610933565b6040516102e79190611c14565b60405180910390f35b5f7f80ac58cd000000000000000000000000000000000000000000000000000000007bffffffffffffffffffffffffffffffffffffffffffffffffffffffff1916827bffffffffffffffffffffffffffffffffffffffffffffffffffffffff191614806103ba57507f5b5e139f000000000000000000000000000000000000000000000000000000007bffffffffffffffffffffffffffffffffffffffffffffffffffffffff1916827bffffffffffffffffffffffffffffffffffffffffffffffffffffffff1916145b806103ca57506103c9826109c1565b5b9050919050565b60605f80546103df906120fd565b80601f016020809104026020016040519081016040528092919081815260200182805461040b906120fd565b80156104565780601f1061042d57610100808354040283529160200191610456565b820191905f5260205f20905b81548152906001019060200180831161043957829003601f168201915b5050505050905090565b5f61046a82610a2a565b5061047482610ab0565b9050919050565b61048d8282610488610ae9565b610af0565b5050565b5f73ffffffffffffffffffffffffffffffffffffffff168273ffffffffffffffffffffffffffffffffffffffff1603610501575f6040517f64a0ae920000000000000000000000000000000000000000000000000000000081526004016104f89190611d5a565b60405180910390fd5b5f610514838361050f610ae9565b610b02565b90508373ffffffffffffffffffffffffffffffffffffffff168173ffffffffffffffffffffffffffffffffffffffff161461058a578382826040517f64283d7b0000000000000000000000000000000000000000000000000000000081526004016105819392919061212d565b60405180910390fd5b50505050565b6105aa83838360405180602001604052805f81525061071c565b505050565b5f6105b982610a2a565b9050919050565b5f5f73ffffffffffffffffffffffffffffffffffffffff168273ffffffffffffffffffffffffffffffffffffffff1603610631575f6040517f89c62b640000000000000000000000000000000000000000000000000000000081526004016106289190611d5a565b60405180910390fd5b60035f8373ffffffffffffffffffffffffffffffffffffffff1673ffffffffffffffffffffffffffffffffffffffff1681526020019081526020015f20549050919050565b606060018054610685906120fd565b80601f01602080910402602001604051908101604052809291908181526020018280546106b1906120fd565b80156106fc5780601f106106d3576101008083540402835291602001916106fc565b820191905f5260205f20905b8154815290600101906020018083116106df57829003601f168201915b5050505050905090565b610718610711610ae9565b8383610d0d565b5050565b610727848484610491565b61073b610732610ae9565b85858585610ee6565b50505050565b60605f60075f8481526020019081526020015f205f9054906101000a900473ffffffffffffffffffffffffffffffffffffffff1690505f5f5f5f5f8573ffffffffffffffffffffffffffffffffffffffff1663501ec7386040518163ffffffff1660e01b81526004015f60405180830381865afa1580156107c4573d5f5f3e3d5ffd5b505050506040513d5f823e3d601f19601f820116820180604052508101906107ec919061225e565b945094509450945094505f61080586868686868e611092565b90505f610846866108158c611105565b8961081f866111cf565b604051602001610832949392919061254f565b6040516020818303038152906040526111cf565b9050806040516020016108599190612623565b60405160208183030381529060405298505050505050505050919050565b8060075f60065481526020019081526020015f205f6101000a81548173ffffffffffffffffffffffffffffffffffffffff021916908373ffffffffffffffffffffffffffffffffffffffff16021790555060065460085f8373ffffffffffffffffffffffffffffffffffffffff1673ffffffffffffffffffffffffffffffffffffffff1681526020019081526020015f2081905550610918826006546111e2565b60065f81548092919061092a90612671565b91905055505050565b5f60055f8473ffffffffffffffffffffffffffffffffffffffff1673ffffffffffffffffffffffffffffffffffffffff1681526020019081526020015f205f8373ffffffffffffffffffffffffffffffffffffffff1673ffffffffffffffffffffffffffffffffffffffff1681526020019081526020015f205f9054906101000a900460ff16905092915050565b5f7f01ffc9a7000000000000000000000000000000000000000000000000000000007bffffffffffffffffffffffffffffffffffffffffffffffffffffffff1916827bffffffffffffffffffffffffffffffffffffffffffffffffffffffff1916149050919050565b5f5f610a35836112d5565b90505f73ffffffffffffffffffffffffffffffffffffffff168173ffffffffffffffffffffffffffffffffffffffff1603610aa757826040517f7e273289000000000000000000000000000000000000000000000000000000008152600401610a9e9190611e65565b60405180910390fd5b80915050919050565b5f60045f8381526020019081526020015f205f9054906101000a900473ffffffffffffffffffffffffffffffffffffffff169050919050565b5f33905090565b610afd838383600161130e565b505050565b5f5f610b0d846112d5565b90505f73ffffffffffffffffffffffffffffffffffffffff168373ffffffffffffffffffffffffffffffffffffffff1614610b4e57610b4d8184866114cd565b5b5f73ffffffffffffffffffffffffffffffffffffffff168173ffffffffffffffffffffffffffffffffffffffff1614610bd957610b8d5f855f5f61130e565b600160035f8373ffffffffffffffffffffffffffffffffffffffff1673ffffffffffffffffffffffffffffffffffffffff1681526020019081526020015f205f82825403925050819055505b5f73ffffffffffffffffffffffffffffffffffffffff168573ffffffffffffffffffffffffffffffffffffffff1614610c5857600160035f8773ffffffffffffffffffffffffffffffffffffffff1673ffffffffffffffffffffffffffffffffffffffff1681526020019081526020015f205f82825401925050819055505b8460025f8681526020019081526020015f205f6101000a81548173ffffffffffffffffffffffffffffffffffffffff021916908373ffffffffffffffffffffffffffffffffffffffff160217905550838573ffffffffffffffffffffffffffffffffffffffff168273ffffffffffffffffffffffffffffffffffffffff167fddf252ad1be2c89b69c2b068fc378daa952ba7f163c4a11628f55a4df523b3ef60405160405180910390a4809150509392505050565b5f73ffffffffffffffffffffffffffffffffffffffff168373ffffffffffffffffffffffffffffffffffffffff1603610d7d575f6040517fa9fbf51f000000000000000000000000000000000000000000000000000000008152600401610d749190611d5a565b60405180910390fd5b5f73ffffffffffffffffffffffffffffffffffffffff168273ffffffffffffffffffffffffffffffffffffffff1603610ded57816040517f5b08ba18000000000000000000000000000000000000000000000000000000008152600401610de49190611d5a565b60405180910390fd5b8060055f8573ffffffffffffffffffffffffffffffffffffffff1673ffffffffffffffffffffffffffffffffffffffff1681526020019081526020015f205f8473ffffffffffffffffffffffffffffffffffffffff1673ffffffffffffffffffffffffffffffffffffffff1681526020019081526020015f205f6101000a81548160ff0219169083151502179055508173ffffffffffffffffffffffffffffffffffffffff168373ffffffffffffffffffffffffffffffffffffffff167f17307eab39ab6107e8899845ad3d59bd9653f200f220920489ca2b5937696c3183604051610ed99190611c14565b60405180910390a3505050565b5f8373ffffffffffffffffffffffffffffffffffffffff163b111561108b578273ffffffffffffffffffffffffffffffffffffffff1663150b7a02868685856040518563ffffffff1660e01b8152600401610f44949392919061270a565b6020604051808303815f875af1925050508015610f7f57506040513d601f19601f82011682018060405250810190610f7c9190612768565b60015b611000573d805f8114610fad576040519150601f19603f3d011682016040523d82523d5f602084013e610fb2565b606091505b505f815103610ff857836040517f64a0ae92000000000000000000000000000000000000000000000000000000008152600401610fef9190611d5a565b60405180910390fd5b805160208201fd5b63150b7a0260e01b7bffffffffffffffffffffffffffffffffffffffffffffffffffffffff1916817bffffffffffffffffffffffffffffffffffffffffffffffffffffffff19161461108957836040517f64a0ae920000000000000000000000000000000000000000000000000000000081526004016110809190611d5a565b60405180910390fd5b505b5050505050565b6060858761109f86611105565b6110ab8860ff16611105565b6110cc8773ffffffffffffffffffffffffffffffffffffffff166014611590565b6110d587611105565b6040516020016110ea96959493929190612c63565b60405160208183030381529060405290509695505050505050565b60605f6001611113846117ce565b0190505f8167ffffffffffffffff81111561113157611130611eee565b5b6040519080825280601f01601f1916602001820160405280156111635781602001600182028036833780820191505090505b5090505f82602083010190505b6001156111c4578080600190039150507f3031323334353637383961626364656600000000000000000000000000000000600a86061a8153600a85816111b9576111b8612d5f565b5b0494505f8503611170575b819350505050919050565b60606111db825f61191f565b9050919050565b5f73ffffffffffffffffffffffffffffffffffffffff168273ffffffffffffffffffffffffffffffffffffffff1603611252575f6040517f64a0ae920000000000000000000000000000000000000000000000000000000081526004016112499190611d5a565b60405180910390fd5b5f61125e83835f610b02565b90505f73ffffffffffffffffffffffffffffffffffffffff168173ffffffffffffffffffffffffffffffffffffffff16146112d0575f6040517f73c6ac6e0000000000000000000000000000000000000000000000000000000081526004016112c79190611d5a565b60405180910390fd5b505050565b5f60025f8381526020019081526020015f205f9054906101000a900473ffffffffffffffffffffffffffffffffffffffff169050919050565b808061134657505f73ffffffffffffffffffffffffffffffffffffffff168273ffffffffffffffffffffffffffffffffffffffff1614155b15611478575f61135584610a2a565b90505f73ffffffffffffffffffffffffffffffffffffffff168373ffffffffffffffffffffffffffffffffffffffff16141580156113bf57508273ffffffffffffffffffffffffffffffffffffffff168173ffffffffffffffffffffffffffffffffffffffff1614155b80156113d257506113d08184610933565b155b1561141457826040517fa9fbf51f00000000000000000000000000000000000000000000000000000000815260040161140b9190611d5a565b60405180910390fd5b811561147657838573ffffffffffffffffffffffffffffffffffffffff168273ffffffffffffffffffffffffffffffffffffffff167f8c5be1e5ebec7d5bd14f71427d1e84f3dd0314c0f7b2291e5b200ac8c7c3b92560405160405180910390a45b505b8360045f8581526020019081526020015f205f6101000a81548173ffffffffffffffffffffffffffffffffffffffff021916908373ffffffffffffffffffffffffffffffffffffffff16021790555050505050565b6114d8838383611aa9565b61158b575f73ffffffffffffffffffffffffffffffffffffffff168373ffffffffffffffffffffffffffffffffffffffff160361154c57806040517f7e2732890000000000000000000000000000000000000000000000000000000081526004016115439190611e65565b60405180910390fd5b81816040517f177e802f000000000000000000000000000000000000000000000000000000008152600401611582929190612d8c565b60405180910390fd5b505050565b60605f8390505f60028460026115a69190612db3565b6115b09190612df4565b67ffffffffffffffff8111156115c9576115c8611eee565b5b6040519080825280601f01601f1916602001820160405280156115fb5781602001600182028036833780820191505090505b5090507f3000000000000000000000000000000000000000000000000000000000000000815f8151811061163257611631612e27565b5b60200101907effffffffffffffffffffffffffffffffffffffffffffffffffffffffffffff191690815f1a9053507f78000000000000000000000000000000000000000000000000000000000000008160018151811061169557611694612e27565b5b60200101907effffffffffffffffffffffffffffffffffffffffffffffffffffffffffffff191690815f1a9053505f60018560026116d39190612db3565b6116dd9190612df4565b90505b600181111561177c577f3031323334353637383961626364656600000000000000000000000000000000600f84166010811061171f5761171e612e27565b5b1a60f81b82828151811061173657611735612e27565b5b60200101907effffffffffffffffffffffffffffffffffffffffffffffffffffffffffffff191690815f1a905350600483901c92508061177590612e54565b90506116e0565b505f82146117c35784846040517fe22e27eb0000000000000000000000000000000000000000000000000000000081526004016117ba929190612e7b565b60405180910390fd5b809250505092915050565b5f5f5f90507a184f03e93ff9f4daa797ed6e38ed64bf6a1f010000000000000000831061182a577a184f03e93ff9f4daa797ed6e38ed64bf6a1f01000000000000000083816118205761181f612d5f565b5b0492506040810190505b6d04ee2d6d415b85acef81000000008310611867576d04ee2d6d415b85acef8100000000838161185d5761185c612d5f565b5b0492506020810190505b662386f26fc10000831061189657662386f26fc10000838161188c5761188b612d5f565b5b0492506010810190505b6305f5e10083106118bf576305f5e10083816118b5576118b4612d5f565b5b0492506008810190505b61271083106118e45761271083816118da576118d9612d5f565b5b0492506004810190505b6064831061190757606483816118fd576118fc612d5f565b5b0492506002810190505b600a8310611916576001810190505b80915050919050565b60605f83510361193f5760405180602001604052805f8152509050611aa3565b5f82611970576003600285516119559190612df4565b61195f9190612ea2565b600461196b9190612db3565b611997565b60036002855160046119829190612db3565b61198c9190612df4565b6119969190612ea2565b5b905060405191507f4142434445464748494a4b4c4d4e4f505152535455565758595a616263646566601f5261067083027f6768696a6b6c6d6e6f707172737475767778797a303132333435363738392b2f18603f526020820181810185865187016020810180515f82525b82841015611a55576003840193508351603f8160121c16518753600187019650603f81600c1c16518753600187019650603f8160061c16518753600187019650603f811651875360018701965050611a02565b80825288611a945760038a510660018114611a775760028114611a8a57611a92565b603d6001880353603d6002880353611a92565b603d60018803535b505b86885284604052505050505050505b92915050565b5f5f73ffffffffffffffffffffffffffffffffffffffff168373ffffffffffffffffffffffffffffffffffffffff1614158015611b6057508273ffffffffffffffffffffffffffffffffffffffff168473ffffffffffffffffffffffffffffffffffffffff161480611b215750611b208484610933565b5b80611b5f57508273ffffffffffffffffffffffffffffffffffffffff16611b4783610ab0565b73ffffffffffffffffffffffffffffffffffffffff16145b5b90509392505050565b5f604051905090565b5f5ffd5b5f5ffd5b5f7fffffffff0000000000000000000000000000000000000000000000000000000082169050919050565b611bae81611b7a565b8114611bb8575f5ffd5b50565b5f81359050611bc981611ba5565b92915050565b5f60208284031215611be457611be3611b72565b5b5f611bf184828501611bbb565b91505092915050565b5f8115159050919050565b611c0e81611bfa565b82525050565b5f602082019050611c275f830184611c05565b92915050565b5f81519050919050565b5f82825260208201905092915050565b8281835e5f83830152505050565b5f601f19601f8301169050919050565b5f611c6f82611c2d565b611c798185611c37565b9350611c89818560208601611c47565b611c9281611c55565b840191505092915050565b5f6020820190508181035f830152611cb58184611c65565b905092915050565b5f819050919050565b611ccf81611cbd565b8114611cd9575f5ffd5b50565b5f81359050611cea81611cc6565b92915050565b5f60208284031215611d0557611d04611b72565b5b5f611d1284828501611cdc565b91505092915050565b5f73ffffffffffffffffffffffffffffffffffffffff82169050919050565b5f611d4482611d1b565b9050919050565b611d5481611d3a565b82525050565b5f602082019050611d6d5f830184611d4b565b92915050565b611d7c81611d3a565b8114611d86575f5ffd5b50565b5f81359050611d9781611d73565b92915050565b5f5f60408385031215611db357611db2611b72565b5b5f611dc085828601611d89565b9250506020611dd185828601611cdc565b9150509250929050565b5f5f5f60608486031215611df257611df1611b72565b5b5f611dff86828701611d89565b9350506020611e1086828701611d89565b9250506040611e2186828701611cdc565b9150509250925092565b5f60208284031215611e4057611e3f611b72565b5b5f611e4d84828501611d89565b91505092915050565b611e5f81611cbd565b82525050565b5f602082019050611e785f830184611e56565b92915050565b611e8781611bfa565b8114611e91575f5ffd5b50565b5f81359050611ea281611e7e565b92915050565b5f5f60408385031215611ebe57611ebd611b72565b5b5f611ecb85828601611d89565b9250506020611edc85828601611e94565b9150509250929050565b5f5ffd5b5f5ffd5b7f4e487b71000000000000000000000000000000000000000000000000000000005f52604160045260245ffd5b611f2482611c55565b810181811067ffffffffffffffff82111715611f4357611f42611eee565b5b80604052505050565b5f611f55611b69565b9050611f618282611f1b565b919050565b5f67ffffffffffffffff821115611f8057611f7f611eee565b5b611f8982611c55565b9050602081019050919050565b828183375f83830152505050565b5f611fb6611fb184611f66565b611f4c565b905082815260208101848484011115611fd257611fd1611eea565b5b611fdd848285611f96565b509392505050565b5f82601f830112611ff957611ff8611ee6565b5b8135612009848260208601611fa4565b91505092915050565b5f5f5f5f6080858703121561202a57612029611b72565b5b5f61203787828801611d89565b945050602061204887828801611d89565b935050604061205987828801611cdc565b925050606085013567ffffffffffffffff81111561207a57612079611b76565b5b61208687828801611fe5565b91505092959194509250565b5f5f604083850312156120a8576120a7611b72565b5b5f6120b585828601611d89565b92505060206120c685828601611d89565b9150509250929050565b7f4e487b71000000000000000000000000000000000000000000000000000000005f52602260045260245ffd5b5f600282049050600182168061211457607f821691505b602082108103612127576121266120d0565b5b50919050565b5f6060820190506121405f830186611d4b565b61214d6020830185611e56565b61215a6040830184611d4b565b949350505050565b5f67ffffffffffffffff82111561217c5761217b611eee565b5b61218582611c55565b9050602081019050919050565b5f6121a461219f84612162565b611f4c565b9050828152602081018484840111156121c0576121bf611eea565b5b6121cb848285611c47565b509392505050565b5f82601f8301126121e7576121e6611ee6565b5b81516121f7848260208601612192565b91505092915050565b5f60ff82169050919050565b61221581612200565b811461221f575f5ffd5b50565b5f815190506122308161220c565b92915050565b5f8151905061224481611cc6565b92915050565b5f8151905061225881611d73565b92915050565b5f5f5f5f5f60a0868803121561227757612276611b72565b5b5f86015167ffffffffffffffff81111561229457612293611b76565b5b6122a0888289016121d3565b955050602086015167ffffffffffffffff8111156122c1576122c0611b76565b5b6122cd888289016121d3565b94505060406122de88828901612222565b93505060606122ef88828901612236565b92505060806123008882890161224a565b9150509295509295909350565b5f81905092915050565b7f7b226e616d65223a2200000000000000000000000000000000000000000000005f82015250565b5f61234b60098361230d565b915061235682612317565b600982019050919050565b5f61236b82611c2d565b612375818561230d565b9350612385818560208601611c47565b80840191505092915050565b7f205661756c7420230000000000000000000000000000000000000000000000005f82015250565b5f6123c560088361230d565b91506123d082612391565b600882019050919050565b7f222c0000000000000000000000000000000000000000000000000000000000005f82015250565b5f61240f60028361230d565b915061241a826123db565b600282019050919050565b7f226465736372697074696f6e223a224f6e2d636861696e207661756c7420666f5f8201527f7220000000000000000000000000000000000000000000000000000000000000602082015250565b5f61247f60228361230d565b915061248a82612425565b602282019050919050565b7f22696d616765223a22646174613a696d6167652f7376672b786d6c3b626173655f8201527f36342c0000000000000000000000000000000000000000000000000000000000602082015250565b5f6124ef60238361230d565b91506124fa82612495565b602382019050919050565b7f227d0000000000000000000000000000000000000000000000000000000000005f82015250565b5f61253960028361230d565b915061254482612505565b600282019050919050565b5f6125598261233f565b91506125658287612361565b9150612570826123b9565b915061257c8286612361565b915061258782612403565b915061259282612473565b915061259e8285612361565b91506125a982612403565b91506125b4826124e3565b91506125c08284612361565b91506125cb8261252d565b915081905095945050505050565b7f646174613a6170706c69636174696f6e2f6a736f6e3b6261736536342c0000005f82015250565b5f61260d601d8361230d565b9150612618826125d9565b601d82019050919050565b5f61262d82612601565b91506126398284612361565b915081905092915050565b7f4e487b71000000000000000000000000000000000000000000000000000000005f52601160045260245ffd5b5f61267b82611cbd565b91507fffffffffffffffffffffffffffffffffffffffffffffffffffffffffffffffff82036126ad576126ac612644565b5b600182019050919050565b5f81519050919050565b5f82825260208201905092915050565b5f6126dc826126b8565b6126e681856126c2565b93506126f6818560208601611c47565b6126ff81611c55565b840191505092915050565b5f60808201905061271d5f830187611d4b565b61272a6020830186611d4b565b6127376040830185611e56565b818103606083015261274981846126d2565b905095945050505050565b5f8151905061276281611ba5565b92915050565b5f6020828403121561277d5761277c611b72565b5b5f61278a84828501612754565b91505092915050565b7f3c73766720786d6c6e733d22687474703a2f2f7777772e77332e6f72672f32305f8201527f30302f737667222077696474683d2234303022206865696768743d223234302260208201527f3e00000000000000000000000000000000000000000000000000000000000000604082015250565b5f61281360418361230d565b915061281e82612793565b604182019050919050565b7f3c726563742077696474683d2234303022206865696768743d223234302220665f8201527f696c6c3d2223316131613265222072783d223136222f3e000000000000000000602082015250565b5f61288360378361230d565b915061288e82612829565b603782019050919050565b7f3c7465787420783d2232302220793d223530222066696c6c3d227768697465225f8201527f20666f6e742d73697a653d2232342220666f6e742d7765696768743d22626f6c60208201527f64223e0000000000000000000000000000000000000000000000000000000000604082015250565b5f61291960438361230d565b915061292482612899565b604382019050919050565b7f205661756c743c2f746578743e000000000000000000000000000000000000005f82015250565b5f612963600d8361230d565b915061296e8261292f565b600d82019050919050565b7f3c7465787420783d2232302220793d223830222066696c6c3d222361616122205f8201527f666f6e742d73697a653d223133223e0000000000000000000000000000000000602082015250565b5f6129d3602f8361230d565b91506129de82612979565b602f82019050919050565b7f3c2f746578743e000000000000000000000000000000000000000000000000005f82015250565b5f612a1d60078361230d565b9150612a28826129e9565b600782019050919050565b7f3c7465787420783d2232302220793d22313330222066696c6c3d2277686974655f8201527f2220666f6e742d73697a653d223132223e546f74616c204465706f736974733a60208201527f2000000000000000000000000000000000000000000000000000000000000000604082015250565b5f612ab360418361230d565b9150612abe82612a33565b604182019050919050565b7f3c7465787420783d2232302220793d22313630222066696c6c3d2277686974655f8201527f2220666f6e742d73697a653d223132223e446563696d616c733a200000000000602082015250565b5f612b23603b8361230d565b9150612b2e82612ac9565b603b82019050919050565b7f3c7465787420783d2232302220793d22313930222066696c6c3d2223383838225f8201527f20666f6e742d73697a653d223130223e5661756c743a20000000000000000000602082015250565b5f612b9360378361230d565b9150612b9e82612b39565b603782019050919050565b7f3c7465787420783d2232302220793d22323230222066696c6c3d2223353535225f8201527f20666f6e742d73697a653d223130223e4e465420230000000000000000000000602082015250565b5f612c0360358361230d565b9150612c0e82612ba9565b603582019050919050565b7f3c2f7376673e00000000000000000000000000000000000000000000000000005f82015250565b5f612c4d60068361230d565b9150612c5882612c19565b600682019050919050565b5f612c6d82612807565b9150612c7882612877565b9150612c838261290d565b9150612c8f8289612361565b9150612c9a82612957565b9150612ca5826129c7565b9150612cb18288612361565b9150612cbc82612a11565b9150612cc782612aa7565b9150612cd38287612361565b9150612cde82612a11565b9150612ce982612b17565b9150612cf58286612361565b9150612d0082612a11565b9150612d0b82612b87565b9150612d178285612361565b9150612d2282612a11565b9150612d2d82612bf7565b9150612d398284612361565b9150612d4482612a11565b9150612d4f82612c41565b9150819050979650505050505050565b7f4e487b71000000000000000000000000000000000000000000000000000000005f52601260045260245ffd5b5f604082019050612d9f5f830185611d4b565b612dac6020830184611e56565b9392505050565b5f612dbd82611cbd565b9150612dc883611cbd565b9250828202612dd681611cbd565b91508282048414831517612ded57612dec612644565b5b5092915050565b5f612dfe82611cbd565b9150612e0983611cbd565b9250828201905080821115612e2157612e20612644565b5b92915050565b7f4e487b71000000000000000000000000000000000000000000000000000000005f52603260045260245ffd5b5f612e5e82611cbd565b91505f8203612e7057612e6f612644565b5b600182039050919050565b5f604082019050612e8e5f830185611e56565b612e9b6020830184611e56565b9392505050565b5f612eac82611cbd565b9150612eb783611cbd565b925082612ec757612ec6612d5f565b5b82820490509291505056fea2646970667358221220518753df56cbced9aba247430f456afe43cfe861659e6935fc8adaf6b689f81b64736f6c63430008210033","linkReferences":{}},"methodIdentifiers":{"approve(address,uint256)":"095ea7b3","balanceOf(address)":"70a08231","getApproved(uint256)":"081812fc","isApprovedForAll(address,address)":"e985e9c5","name()":"06fdde03","ownerOf(uint256)":"6352211e","safeMint(address,address)":"e59aee0c","safeTransferFrom(address,address,uint256)":"42842e0e","safeTransferFrom(address,address,uint256,bytes)":"b88d4fde","setApprovalForAll(address,bool)":"a22cb465","supportsInterface(bytes4)":"01ffc9a7","symbol()":"95d89b41","tokenURI(uint256)":"c87b56dd","transferFrom(address,address,uint256)":"23b872dd"},"id":35}