{"abi":[{"type":"constructor","inputs":[{"name":"_no","type":"uint256","internalType":"uint256"}],"stateMutability":"nonpayable"},{"type":"function","name":"checkHash","inputs":[],"outputs":[{"name":"r","type":"bytes32","internalType":"bytes32"}],"stateMutability":"view"}],"bytecode":{"object":"0x6080604052348015600e575f5ffd5b506040516101543803806101548339818101604052810190602e9190606b565b805f81905550506091565b5f5ffd5b5f819050919050565b604d81603d565b81146056575f5ffd5b50565b5f815190506065816046565b92915050565b5f60208284031215607d57607c6039565b5b5f6088848285016059565b91505092915050565b60b78061009d5f395ff3fe6080604052348015600e575f5ffd5b50600436106026575f3560e01c806319483cd114602a575b5f5ffd5b60306044565b604051603b9190606a565b60405180910390f35b5f5f54805f5260205f2091505090565b5f819050919050565b6064816054565b82525050565b5f602082019050607b5f830184605d565b9291505056fea2646970667358221220c19aa35e8085768ebe68044165c9911314c76f2af1af0264ef3130bb74b746c964736f6c63430008210033","linkReferences":{}},"methodIdentifiers":{"checkHash()":"19483cd1"},"id":36}