{"abi":[{"type":"function","name":"registerNumber","inputs":[{"name":"_no","type":"uint256","internalType":"uint256"}],"outputs":[],"stateMutability":"nonpayable"},{"type":"event","name":"YYY","inputs":[{"name":"n","type":"address","indexed":false,"internalType":"address"}],"anonymous":false}],"bytecode":{"object":"0x6080604052348015600e575f5ffd5b506103fa8061001c5f395ff3fe608060405234801561000f575f5ffd5b5060043610610029575f3560e01c806304cd34551461002d575b5f5ffd5b61004760048036038101906100429190610150565b610049565b005b5f815f5260205f2090505f604051806020016100649061010c565b6020820181038252601f19601f8201166040525083604051602001610089919061018a565b6040516020818303038152906040526040516020016100a99291906101f5565b60405160208183030381529060405290505f828251602084015ff59050806100cf575f5ffd5b7f4e56b7acd448777094c6ad29100f2cb89f89f00bbef1e99d12583090969e1881816040516100fe9190610257565b60405180910390a150505050565b6101548061027183390190565b5f5ffd5b5f819050919050565b61012f8161011d565b8114610139575f5ffd5b50565b5f8135905061014a81610126565b92915050565b5f6020828403121561016557610164610119565b5b5f6101728482850161013c565b91505092915050565b6101848161011d565b82525050565b5f60208201905061019d5f83018461017b565b92915050565b5f81519050919050565b5f81905092915050565b8281835e5f83830152505050565b5f6101cf826101a3565b6101d981856101ad565b93506101e98185602086016101b7565b80840191505092915050565b5f61020082856101c5565b915061020c82846101c5565b91508190509392505050565b5f73ffffffffffffffffffffffffffffffffffffffff82169050919050565b5f61024182610218565b9050919050565b61025181610237565b82525050565b5f60208201905061026a5f830184610248565b9291505056fe6080604052348015600e575f5ffd5b506040516101543803806101548339818101604052810190602e9190606b565b805f81905550506091565b5f5ffd5b5f819050919050565b604d81603d565b81146056575f5ffd5b50565b5f815190506065816046565b92915050565b5f60208284031215607d57607c6039565b5b5f6088848285016059565b91505092915050565b60b78061009d5f395ff3fe6080604052348015600e575f5ffd5b50600436106026575f3560e01c806319483cd114602a575b5f5ffd5b60306044565b604051603b9190606a565b60405180910390f35b5f5f54805f5260205f2091505090565b5f819050919050565b6064816054565b82525050565b5f602082019050607b5f830184605d565b9291505056fea26469706673582212205c10ffe2c13283b486489e203229d9ba9863f8a169d8cfff1d60a65c37dbd90764736f6c63430008210033a2646970667358221220b8370c915a1a052e27def2227f7af75f7008717eb05822200c5d47c84e5f4ce764736f6c63430008210033","linkReferences":{}},"methodIdentifiers":{"registerNumber(uint256)":"04cd3455"},"id":19}