{"abi":[{"type":"constructor","inputs":[{"name":"_nft","type":"address","internalType":"address"}],"stateMutability":"nonpayable"},{"type":"function","name":"allVaults","inputs":[{"name":"","type":"uint256","internalType":"uint256"}],"outputs":[{"name":"","type":"address","internalType":"address"}],"stateMutability":"view"},{"type":"function","name":"createVault","inputs":[{"name":"_token","type":"address","internalType":"address"}],"outputs":[{"name":"","type":"address","internalType":"address"}],"stateMutability":"nonpayable"},{"type":"function","name":"nft","inputs":[],"outputs":[{"name":"","type":"address","internalType":"contract MyToken"}],"stateMutability":"view"},{"type":"function","name":"predictVaultAddress","inputs":[{"name":"_token","type":"address","internalType":"address"}],"outputs":[{"name":"","type":"address","internalType":"address"}],"stateMutability":"view"},{"type":"function","name":"totalVaults","inputs":[],"outputs":[{"name":"","type":"uint256","internalType":"uint256"}],"stateMutability":"view"},{"type":"function","name":"vaults","inputs":[{"name":"","type":"address","internalType":"address"}],"outputs":[{"name":"","type":"address","internalType":"address"}],"stateMutability":"view"},{"type":"event","name":"VaultCreated","inputs":[{"name":"token","type":"address","indexed":true,"internalType":"address"},{"name":"vault","type":"address","indexed":true,"internalType":"address"},{"name":"deployer","type":"address","indexed":true,"internalType":"address"}],"anonymous":false}],"bytecode":{"object":"0x60a060405234801561000f575f5ffd5b50604051611b3c380380611b3c833981810160405281019061003191906100c9565b8073ffffffffffffffffffffffffffffffffffffffff1660808173ffffffffffffffffffffffffffffffffffffffff1681525050506100f4565b5f5ffd5b5f73ffffffffffffffffffffffffffffffffffffffff82169050919050565b5f6100988261006f565b9050919050565b6100a88161008e565b81146100b2575f5ffd5b50565b5f815190506100c38161009f565b92915050565b5f602082840312156100de576100dd61006b565b5b5f6100eb848285016100b5565b91505092915050565b608051611a296101135f395f8181610237015261046c0152611a295ff3fe608060405234801561000f575f5ffd5b5060043610610060575f3560e01c806329eb7e171461006457806347ccca02146100945780638d654023146100b25780639094a91e146100d0578063a622ee7c14610100578063b4bd6f4614610130575b5f5ffd5b61007e600480360381019061007991906106b2565b610160565b60405161008b91906106ec565b60405180910390f35b61009c610235565b6040516100a99190610760565b60405180910390f35b6100ba610259565b6040516100c79190610791565b60405180910390f35b6100ea60048036038101906100e591906107d4565b610265565b6040516100f791906106ec565b60405180910390f35b61011a600480360381019061011591906106b2565b6102a0565b60405161012791906106ec565b60405180910390f35b61014a600480360381019061014591906106b2565b6102cf565b60405161015791906106ec565b60405180910390f35b5f5f826040516020016101739190610844565b6040516020818303038152906040528051906020012090505f6040518060200161019c90610647565b6020820181038252601f19601f82011660405250846040516020016101c191906106ec565b6040516020818303038152906040526040516020016101e19291906108b0565b604051602081830303815290604052905060ff60f81b308383805190602001206040516020016102149493929190610947565b604051602081830303815290604052805190602001205f1c92505050919050565b7f000000000000000000000000000000000000000000000000000000000000000081565b5f600180549050905090565b60018181548110610274575f80fd5b905f5260205f20015f915054906101000a900473ffffffffffffffffffffffffffffffffffffffff1681565b5f602052805f5260405f205f915054906101000a900473ffffffffffffffffffffffffffffffffffffffff1681565b5f5f73ffffffffffffffffffffffffffffffffffffffff168273ffffffffffffffffffffffffffffffffffffffff160361033e576040517f08c379a0000000000000000000000000000000000000000000000000000000008152600401610335906109ee565b60405180910390fd5b5f73ffffffffffffffffffffffffffffffffffffffff165f5f8473ffffffffffffffffffffffffffffffffffffffff1673ffffffffffffffffffffffffffffffffffffffff1681526020019081526020015f205f9054906101000a900473ffffffffffffffffffffffffffffffffffffffff1673ffffffffffffffffffffffffffffffffffffffff1614610407576040517f08c379a00000000000000000000000000000000000000000000000000000000081526004016103fe90610a56565b60405180910390fd5b5f826040516020016104199190610844565b6040516020818303038152906040528051906020012090505f818460405161044090610647565b61044a91906106ec565b8190604051809103905ff5905080158015610467573d5f5f3e3d5ffd5b5090507f000000000000000000000000000000000000000000000000000000000000000073ffffffffffffffffffffffffffffffffffffffff1663e59aee0c33836040518363ffffffff1660e01b81526004016104c5929190610a74565b5f604051808303815f87803b1580156104dc575f5ffd5b505af11580156104ee573d5f5f3e3d5ffd5b50505050805f5f8673ffffffffffffffffffffffffffffffffffffffff1673ffffffffffffffffffffffffffffffffffffffff1681526020019081526020015f205f6101000a81548173ffffffffffffffffffffffffffffffffffffffff021916908373ffffffffffffffffffffffffffffffffffffffff160217905550600181908060018154018082558091505060019003905f5260205f20015f9091909190916101000a81548173ffffffffffffffffffffffffffffffffffffffff021916908373ffffffffffffffffffffffffffffffffffffffff1602179055503373ffffffffffffffffffffffffffffffffffffffff168173ffffffffffffffffffffffffffffffffffffffff168573ffffffffffffffffffffffffffffffffffffffff167f897c133dfbfe1f6239e98b4ffd7e4f6c86a62350a131a7a37790419f58af02f960405160405180910390a48092505050919050565b610f5880610a9c83390190565b5f5ffd5b5f73ffffffffffffffffffffffffffffffffffffffff82169050919050565b5f61068182610658565b9050919050565b61069181610677565b811461069b575f5ffd5b50565b5f813590506106ac81610688565b92915050565b5f602082840312156106c7576106c6610654565b5b5f6106d48482850161069e565b91505092915050565b6106e681610677565b82525050565b5f6020820190506106ff5f8301846106dd565b92915050565b5f819050919050565b5f61072861072361071e84610658565b610705565b610658565b9050919050565b5f6107398261070e565b9050919050565b5f61074a8261072f565b9050919050565b61075a81610740565b82525050565b5f6020820190506107735f830184610751565b92915050565b5f819050919050565b61078b81610779565b82525050565b5f6020820190506107a45f830184610782565b92915050565b6107b381610779565b81146107bd575f5ffd5b50565b5f813590506107ce816107aa565b92915050565b5f602082840312156107e9576107e8610654565b5b5f6107f6848285016107c0565b91505092915050565b5f8160601b9050919050565b5f610815826107ff565b9050919050565b5f6108268261080b565b9050919050565b61083e61083982610677565b61081c565b82525050565b5f61084f828461082d565b60148201915081905092915050565b5f81519050919050565b5f81905092915050565b8281835e5f83830152505050565b5f61088a8261085e565b6108948185610868565b93506108a4818560208601610872565b80840191505092915050565b5f6108bb8285610880565b91506108c78284610880565b91508190509392505050565b5f7fff0000000000000000000000000000000000000000000000000000000000000082169050919050565b5f819050919050565b610918610913826108d3565b6108fe565b82525050565b5f819050919050565b5f819050919050565b61094161093c8261091e565b610927565b82525050565b5f6109528287610907565b600182019150610962828661082d565b6014820191506109728285610930565b6020820191506109828284610930565b60208201915081905095945050505050565b5f82825260208201905092915050565b7f5a65726f206164647265737300000000000000000000000000000000000000005f82015250565b5f6109d8600c83610994565b91506109e3826109a4565b602082019050919050565b5f6020820190508181035f830152610a05816109cc565b9050919050565b7f5661756c7420616c7265616479206578697374730000000000000000000000005f82015250565b5f610a40601483610994565b9150610a4b82610a0c565b602082019050919050565b5f6020820190508181035f830152610a6d81610a34565b9050919050565b5f604082019050610a875f8301856106dd565b610a9460208301846106dd565b939250505056fe60a060405234801561000f575f5ffd5b50604051610f58380380610f58833981810160405281019061003191906100c9565b8073ffffffffffffffffffffffffffffffffffffffff1660808173ffffffffffffffffffffffffffffffffffffffff1681525050506100f4565b5f5ffd5b5f73ffffffffffffffffffffffffffffffffffffffff82169050919050565b5f6100988261006f565b9050919050565b6100a88161008e565b81146100b2575f5ffd5b50565b5f815190506100c38161009f565b92915050565b5f602082840312156100de576100dd61006b565b5b5f6100eb848285016100b5565b91505092915050565b608051610e2961012f5f395f818161031b0152818161040e0152818161049e0152818161052e01528181610616015261076f0152610e295ff3fe608060405234801561000f575f5ffd5b5060043610610086575f3560e01c8063501ec73811610059578063501ec738146101125780637d88209714610134578063b6b55f2514610152578063fc0c546a1461016e57610086565b806312065fe01461008a578063168a4822146100a857806327e235e3146100c65780632e1a7d4d146100f6575b5f5ffd5b61009261018c565b60405161009f91906107a9565b60405180910390f35b6100b06101d0565b6040516100bd91906107a9565b60405180910390f35b6100e060048036038101906100db919061082d565b6101d8565b6040516100ed91906107a9565b60405180910390f35b610110600480360381019061010b9190610882565b6101ed565b005b61011a610406565b60405161012b959493929190610947565b60405180910390f35b61013c6105cd565b60405161014991906107a9565b60405180910390f35b61016c60048036038101906101679190610882565b6105d2565b005b61017661076d565b6040516101839190610a01565b60405180910390f35b5f60015f3373ffffffffffffffffffffffffffffffffffffffff1673ffffffffffffffffffffffffffffffffffffffff1681526020019081526020015f2054905090565b5f5f54905090565b6001602052805f5260405f205f915090505481565b5f811161022f576040517f08c379a000000000000000000000000000000000000000000000000000000000815260040161022690610a64565b60405180910390fd5b8060015f3373ffffffffffffffffffffffffffffffffffffffff1673ffffffffffffffffffffffffffffffffffffffff1681526020019081526020015f205410156102af576040517f08c379a00000000000000000000000000000000000000000000000000000000081526004016102a690610acc565b60405180910390fd5b8060015f3373ffffffffffffffffffffffffffffffffffffffff1673ffffffffffffffffffffffffffffffffffffffff1681526020019081526020015f205f8282546102fb9190610b17565b92505081905550805f5f8282546103129190610b17565b925050819055507f000000000000000000000000000000000000000000000000000000000000000073ffffffffffffffffffffffffffffffffffffffff1663a9059cbb33836040518363ffffffff1660e01b8152600401610374929190610b4a565b6020604051808303815f875af1158015610390573d5f5f3e3d5ffd5b505050506040513d601f19601f820116820180604052508101906103b49190610ba6565b503373ffffffffffffffffffffffffffffffffffffffff167f7084f5476618d8e60b11ef0d7d3f06914655adb8793e28ff7f018d4c76d505d5826040516103fb91906107a9565b60405180910390a250565b6060805f5f5f7f000000000000000000000000000000000000000000000000000000000000000073ffffffffffffffffffffffffffffffffffffffff166306fdde036040518163ffffffff1660e01b81526004015f60405180830381865afa158015610474573d5f5f3e3d5ffd5b505050506040513d5f823e3d601f19601f8201168201806040525081019061049c9190610cef565b7f000000000000000000000000000000000000000000000000000000000000000073ffffffffffffffffffffffffffffffffffffffff166395d89b416040518163ffffffff1660e01b81526004015f60405180830381865afa158015610504573d5f5f3e3d5ffd5b505050506040513d5f823e3d601f19601f8201168201806040525081019061052c9190610cef565b7f000000000000000000000000000000000000000000000000000000000000000073ffffffffffffffffffffffffffffffffffffffff1663313ce5676040518163ffffffff1660e01b8152600401602060405180830381865afa158015610595573d5f5f3e3d5ffd5b505050506040513d601f19601f820116820180604052508101906105b99190610d60565b5f5430945094509450945094509091929394565b5f5481565b5f8111610614576040517f08c379a000000000000000000000000000000000000000000000000000000000815260040161060b90610a64565b60405180910390fd5b7f000000000000000000000000000000000000000000000000000000000000000073ffffffffffffffffffffffffffffffffffffffff166323b872dd3330846040518463ffffffff1660e01b815260040161067193929190610d8b565b6020604051808303815f875af115801561068d573d5f5f3e3d5ffd5b505050506040513d601f19601f820116820180604052508101906106b19190610ba6565b508060015f3373ffffffffffffffffffffffffffffffffffffffff1673ffffffffffffffffffffffffffffffffffffffff1681526020019081526020015f205f8282546106fe9190610dc0565b92505081905550805f5f8282546107159190610dc0565b925050819055503373ffffffffffffffffffffffffffffffffffffffff167f2da466a7b24304f47e87fa2e1e5a81b9831ce54fec19055ce277ca2f39ba42c48260405161076291906107a9565b60405180910390a250565b7f000000000000000000000000000000000000000000000000000000000000000081565b5f819050919050565b6107a381610791565b82525050565b5f6020820190506107bc5f83018461079a565b92915050565b5f604051905090565b5f5ffd5b5f5ffd5b5f73ffffffffffffffffffffffffffffffffffffffff82169050919050565b5f6107fc826107d3565b9050919050565b61080c816107f2565b8114610816575f5ffd5b50565b5f8135905061082781610803565b92915050565b5f60208284031215610842576108416107cb565b5b5f61084f84828501610819565b91505092915050565b61086181610791565b811461086b575f5ffd5b50565b5f8135905061087c81610858565b92915050565b5f60208284031215610897576108966107cb565b5b5f6108a48482850161086e565b91505092915050565b5f81519050919050565b5f82825260208201905092915050565b8281835e5f83830152505050565b5f601f19601f8301169050919050565b5f6108ef826108ad565b6108f981856108b7565b93506109098185602086016108c7565b610912816108d5565b840191505092915050565b5f60ff82169050919050565b6109328161091d565b82525050565b610941816107f2565b82525050565b5f60a0820190508181035f83015261095f81886108e5565b9050818103602083015261097381876108e5565b90506109826040830186610929565b61098f606083018561079a565b61099c6080830184610938565b9695505050505050565b5f819050919050565b5f6109c96109c46109bf846107d3565b6109a6565b6107d3565b9050919050565b5f6109da826109af565b9050919050565b5f6109eb826109d0565b9050919050565b6109fb816109e1565b82525050565b5f602082019050610a145f8301846109f2565b92915050565b7f416d6f756e74206d7573742062652067726561746572207468616e20300000005f82015250565b5f610a4e601d836108b7565b9150610a5982610a1a565b602082019050919050565b5f6020820190508181035f830152610a7b81610a42565b9050919050565b7f696e73756666696369656e742066756e647300000000000000000000000000005f82015250565b5f610ab66012836108b7565b9150610ac182610a82565b602082019050919050565b5f6020820190508181035f830152610ae381610aaa565b9050919050565b7f4e487b71000000000000000000000000000000000000000000000000000000005f52601160045260245ffd5b5f610b2182610791565b9150610b2c83610791565b9250828203905081811115610b4457610b43610aea565b5b92915050565b5f604082019050610b5d5f830185610938565b610b6a602083018461079a565b9392505050565b5f8115159050919050565b610b8581610b71565b8114610b8f575f5ffd5b50565b5f81519050610ba081610b7c565b92915050565b5f60208284031215610bbb57610bba6107cb565b5b5f610bc884828501610b92565b91505092915050565b5f5ffd5b5f5ffd5b7f4e487b71000000000000000000000000000000000000000000000000000000005f52604160045260245ffd5b610c0f826108d5565b810181811067ffffffffffffffff82111715610c2e57610c2d610bd9565b5b80604052505050565b5f610c406107c2565b9050610c4c8282610c06565b919050565b5f67ffffffffffffffff821115610c6b57610c6a610bd9565b5b610c74826108d5565b9050602081019050919050565b5f610c93610c8e84610c51565b610c37565b905082815260208101848484011115610caf57610cae610bd5565b5b610cba8482856108c7565b509392505050565b5f82601f830112610cd657610cd5610bd1565b5b8151610ce6848260208601610c81565b91505092915050565b5f60208284031215610d0457610d036107cb565b5b5f82015167ffffffffffffffff811115610d2157610d206107cf565b5b610d2d84828501610cc2565b91505092915050565b610d3f8161091d565b8114610d49575f5ffd5b50565b5f81519050610d5a81610d36565b92915050565b5f60208284031215610d7557610d746107cb565b5b5f610d8284828501610d4c565b91505092915050565b5f606082019050610d9e5f830186610938565b610dab6020830185610938565b610db8604083018461079a565b949350505050565b5f610dca82610791565b9150610dd583610791565b9250828201905080821115610ded57610dec610aea565b5b9291505056fea264697066735822122030f441f34c22f355b192694a7a75a518bfe73b1a2f058815c06ca66ebfed454464736f6c63430008210033a2646970667358221220f21ba616e0db75ab0877e2dfc77b7075aac2f542c4bbb63cf43a31c4789a721e64736f6c63430008210033","linkReferences":{}},"methodIdentifiers":{"allVaults(uint256)":"9094a91e","createVault(address)":"b4bd6f46","nft()":"47ccca02","predictVaultAddress(address)":"29eb7e17","totalVaults()":"8d654023","vaults(address)":"a622ee7c"},"id":38}